:100000000C94F1010C940E020C940E020C940E024E
:100010000C940E020C940E020C940E020C940E0220
:100020000C940E020C9408120C940E020C944913BA
:100030000C940E020C940E020C940E020C940E0200
:100040000C940E020C940E020C94650F0C941E0F6F
:100050000C940E020C940E020C940E020C940E02E0
:100060000C940E020C940E02084AD73B3BCE016E54
:1000700084BCBFFDC12F3D6C74319ABD56833DDAFF
:100080003D00C77F11BED9E4BB4C3E916BAAAABE0E
:10009000000000803F05A84CCDB2D44EB93836A937
:1000A000020C50B9918688083CA6AAAA2ABE000074
:1000B00000803F0D0A00496E76616C696420636FB1
:1000C0006D6D616E640D0A004D6F64616C20677226
:1000D0006F75702076696F6C6174696F6E0D0A00C0
:1000E000466C6F6174696E6720706F696E7420650D
:1000F00072726F720D0A00556E737570706F727444
:1001000065642073746174656D656E740D0A0045D5
:100110007870656374656420636F6D6D616E6420D3
:100120006C65747465720D0A00426164206E756DB1
:1001300062657220666F726D61740D0A006572727D
:100140006F723A20006F6B0D0A0073746F700D0AA6
:10015000000D0A27242720746F2064756D702063BA
:10016000757272656E742073657474696E67730D51
:100170000A000D0A4772626C20302E3861332F63FB
:100180006D005761726E696E673A204661696C65F1
:100190006420746F207265616420454550524F4D54
:1001A0002073657474696E67732E205573696E676A
:1001B0002064656661756C74732E0D0A0053746F4C
:1001C000726564206E65772073657474696E670D5F
:1001D0000A00556E6B6E6F776E20706172616D658F
:1001E0007465720D0A00537465702070756C7365C8
:1001F000206D757374206265203E3D2033206D694B
:1002000063726F7365636F6E64730D0A0053746578
:1002100070732F6D6D206D757374206265203E20A4
:10022000302E300D0A000D0A2724783D76616C755A
:10023000652720746F2073657420706172616D652D
:10024000746572206F72206A7573742027242720CA
:10025000746F2064756D702063757272656E7420A2
:1002600073657474696E67730D0A002028636F727A
:100270006E6572696E67206A756E6374696F6E2051
:10028000646576696174696F6E20696E206D6D2991
:10029000002028616363656C65726174696F6E200C
:1002A000696E206D6D2F7365635E32290D0A2439E6
:1002B000203D2000290D0A2438203D2000202873ED
:1002C00074657020706F727420696E766572742028
:1002D0006D61736B2E2062696E617279203D200022
:1002E00020286D6D2F617263207365676D656E7474
:1002F000290D0A2437203D200020286D6D2F6D69BF
:100300006E2064656661756C74207365656B207220
:10031000617465290D0A2436203D200020286D6D6A
:100320002F6D696E2064656661756C742066656505
:10033000642072617465290D0A2435203D20002057
:10034000286D6963726F7365636F6E647320737475
:1003500065702070756C7365290D0A2434203D206A
:1003600000202873746570732F6D6D207A290D0A33
:100370002433203D2000202873746570732F6D6D29
:100380002079290D0A2432203D200020287374652D
:1003900070732F6D6D2078290D0A2431203D2000C7
:1003A0002430203D2000494E46494E4954594E4183
:1003B0004ECDCCCC3D0AD7233C17B7D13877CC2BC8
:1003C000329595E6241FB14F0A000020410000C875
:1003D0004200401C4620BCBE4CCA1B0E5AAEC59DF6
:1003E000740011241FBECFEFD8E0DEBFCDBF11E0F7
:1003F000A0E0B1E0E4EAF6E502C005900D92AC3170
:10040000B107D9F716E0ACE1B1E001C01D92A53FFC
:10041000B107E1F70E9410020C94502B0C940000DD
:100420006F927F928F929F92AF92BF92CF92DF9204
:10043000EF92FF920F931F93DF93CF93CDB7DEB769
:1004400068970FB6F894DEBF0FBECDBF60E875E2C7
:1004500080E090E00E94D00E0E9401137894E6EEB6
:10046000F5E08AE2DF011D928A95E9F781E0809349
:10047000E6055E010894A11CB11C9DE0C92ED12C9B
:10048000CC0EDD1E4F018AE2682E77247394809192
:10049000E605882309F453C0D501E9EEF5E08CE0C8
:1004A00001900D928150E1F7D601E6EFF5E08CE086
:1004B00001900D928150E1F7F401862D11928A95F9
:1004C000E9F70E94600F0E94CC190E94C60F0E949B
:1004D000B3210E94CF060E94B00E0E9415220E94F6
:1004E0003513A9EEB5E0F5018CE001900D92815035
:1004F000E1F7A6EFB5E0F6018CE001900D92815096
:10050000E1F769817A818B819C812D813E814F81C8
:100510005885E984FA840B851C850E947C066981D4
:100520007A818B819C812D813E814F815885E98420
:10053000FA840B851C850E94681A7092E8050E9457
:1005400051110E94A711A3CFEF92FF920F931F9317
:100550000E94FC2260E070E080E090E020E030E06B
:1005600040E050E0EE24FF2487010E94681A1F91AA
:100570000F91FF90EF900895EF92FF920F931F93CA
:10058000CF93DF937B018C0120E030E040EA51E41F
:100590000E9449280E9451260E94E825EB010E94F2
:1005A0009621C801B70120E030E04AE754E40E94F8
:1005B00049287B018C0182E390E0C89FB001C99F6C
:1005C000700DD89F700D112480E090E00E941426D9
:1005D0009B01AC01C801B7010E949A240E945126D8
:1005E0000E94E825DC01CB010E94C72100E911E04F
:1005F0000EC00E9451118091E605882351F484EFCA
:1006000091E0F8013197F1F70197D9F721972097F9
:1006100081F7DF91CF911F910F91FF90EF90089597
:100620004F925F926F927F928F92AF92BF92CF92D2
:10063000DF92EF92FF920F931F93DF93CF9300D03F
:1006400000D0CDB7DEB72B013C0129833A834B8321
:100650005C830E9451118091E605882391F40E94E9
:100660005E1A8823B1F7C301B20129813A814B8117
:100670005C810E94EF1D8091E805882311F00E94A3
:100680008A120F900F900F900F90CF91DF911F91D2
:100690000F91FF90EF90DF90CF90BF90AF908F9031
:1006A0007F906F905F904F9008952F923F924F925E
:1006B0005F926F927F928F929F92AF92BF92CF92F2
:1006C000DF92EF92FF920F931F93DF93CF93CDB7FB
:1006D000DEB7CE54D0400FB6F894DEBF0FBECDBF0C
:1006E0003C017EAF6DAF21965FAF4EAF2197229652
:1006F0002FAF229723960FAF23972496EFAE249720
:100700002896ACAEBDAECEAEDFAE289729968FAEA2
:100710002997E22EFF24EE0CFF1CEE0CFF1C4E0D61
:100720005F1D5CAF4BAFDA012D903D904D905C901A
:10073000FC01EE0DFF1DC201B1012081318142811A
:1007400053810E949B2469AB7AAB8BAB9CAB10E0CE
:10075000000F111F000F111F2196EEADFFAD219765
:10076000E00FF11FFAAFE9AFA080B180C280D38063
:10077000F301E00FF11FC601B501208131814281F3
:1007800053810E949B246DA77EA78FA798AB2496C8
:100790002FAD2497E22FF0E0EE0FFF1FEE0FFF1FAB
:1007A0006E0E7F1ED3018D919D910D90BC91A02D59
:1007B0008DAB9EABAFABB8AF2DAD3EADE20FF31F2F
:1007C00060817181828193812DA93EA94FA958AD85
:1007D0000E949A2469A77AA78BA79CA7D201C1017E
:1007E000B0588DA39EA3AFA3B8A7A60195015058FA
:1007F00029A33AA34BA35CA34DAD5EADE40EF51E59
:10080000D7016D917D918D919C9129A93AA94BA910
:100810005CA90E949A243B014C01EDADFEAD0E0F88
:100820001F1FD8016D917D918D919C912DA53EA5A5
:100830004FA558A90E949A245B016C016DA17EA16D
:100840008FA198A5A60195010E9449287B018C01E2
:1008500069A17AA18BA19CA1A40193010E944928BE
:100860009B01AC01C801B7010E949A241B012C0115
:100870006DA17EA18FA198A5A40193010E94492892
:100880007B018C0169A17AA18BA19CA1A601950194
:100890000E9449289B01AC01C801B7010E949B241A
:1008A0009B01AC01C201B1010E940E255B016C01EC
:1008B00020E030E040E050E00E947425882354F4AA
:1008C000C601B5012BED3FE049EC50E40E949B24AA
:1008D0005B016C01A8968FADA897882351F0C601E3
:1008E000B5012BED3FE049EC50E40E949A245B01F6
:1008F0006C01C601B501A7962CAD3DAD4EAD5FAD07
:10090000A7970E94492829A53AA54BA55CA50E9456
:1009100084277B018C0120E030E040E050E00E9421
:100920007425882309F4CEC1C801B7012091E706D8
:100930003091E8064091E9065091EA060E947B2535
:100940000E9451260E94E82578A36F8F2996BFAD9B
:100950002997BB23A1F080E090E00E9414269B0120
:10096000AC0128966CAD7DAD8EAD9FAD28970E94F1
:10097000492828966CAF7DAF8EAF9FAF28972F8DFB
:1009800038A1B90180E090E00E9414267B018C011F
:10099000C601B501A80197010E947B256B8F7C8F52
:1009A0008D8F9E8F69A57AA58BA59CA5A80197011F
:1009B0000E947B256F8B788F898F9A8F6B8D7C8DB2
:1009C0008D8D9E8D20E030E040E05FEB0E94492855
:1009D0002B8D3C8D4D8D5E8D0E94492820E030E0AE
:1009E00040E85FE30E949B246B8B7C8B8D8B9E8BFE
:1009F00024963FAD2497E32FF0E0EE0FFF1FEE0F9C
:100A0000FF1FCE010196E80FF91F2DA93EA94FA99E
:100A100058AD208331834283538341E050E05E87A9
:100A20004D8766242296BFAD2297AB2FB0E0AA0F68
:100A3000BB1FAA0FBB1FA80FB91F2B96BFAFAEAF2E
:100A40002B9723963FAD2397232F30E0220F331FA0
:100A5000220F331F280F391F2D963FAF2EAF2D9732
:100A60002F96FFAFEEAF2F9707C148E146150CF464
:100A700046C06DA17EA18FA198A52B8D3C8D4D8D7B
:100A80005E8D0E9449287B018C0169A17AA18BA10E
:100A90009CA12B893C894D895E890E9449289B0134
:100AA000AC01C801B7010E949B247B018C016DA1A0
:100AB0007EA18FA198A52B893C894D895E890E94D2
:100AC00049285B016C0169A17AA18BA19CA12B8DA6
:100AD0003C8D4D8D5E8D0E9449289B01AC01C60165
:100AE000B5010E949A246DA37EA38FA398A7639457
:100AF000C701D80189A39AA3ABA3BCA361C0AD85EC
:100B0000BE85BD0180E090E00E9414262B8D3C8DB7
:100B10004D8D5E8D0E9449287B018C01C8010E9489
:100B200078256F87788B898B9A8BB701C8010E94D3
:100B3000CC283B014C01EBADFCADE080F1800281A3
:100B4000138117FB109517F91095A9ADBAAD2D902B
:100B50003D904D905C90C801B7012F853889498937
:100B60005A890E9449285B016C01C201B101A401AC
:100B700093010E9449289B01AC01C601B5010E9466
:100B80009B246DA37EA38FA398A7C801B701A401DE
:100B900093010E9449287B018C01C201B1012F857C
:100BA000388949895A890E9449289B01AC01C801AA
:100BB000B7010E949A2469A37AA38BA39CA36624FD
:100BC00069A97AA98BA99CA92DA13EA14FA158A5DD
:100BD0000E949B242B96EEADFFAD2B976083718313
:100BE000828393836DA57EA58FA598A929A13AA19B
:100BF0004BA15CA10E949B242D96AEADBFAD2D975D
:100C00006D937D938D939C9313972F96EEADFFADCF
:100C10002F9760817181828193812F89388D498DD1
:100C20005A8D0E949B242F96AEADBFAD2F976D932A
:100C30007D938D939C93139769817A818B819C819D
:100C40002D813E814F815885E984FA840B851C856E
:100C50002896ACACBDACCEACDFAC289729968FAC57
:100C600029970E9410038091E605882359F5ED85A8
:100C7000FE853196FE87ED872D853E854F8D58A1E7
:100C80002417350708F4F1CEADADBEAD6D917D9161
:100C90008D919C91139714962D913D914D915C915E
:100CA00017971896ED90FD900D911C911B97289623
:100CB000ACACBDACCEACDFAC289729968FAC2997F5
:100CC0000E941003C25BDF4F0FB6F894DEBF0FBE69
:100CD000CDBFCF91DF911F910F91FF90EF90DF90EB
:100CE000CF90BF90AF909F908F907F906F905F90CC
:100CF0004F903F902F900895AF92BF92CF92DF9286
:100D0000EF92FF920F931F9359016A010E941626DA
:100D10002091D0063091D1064091D2065091D30651
:100D20000E947B2560932B0170932C0180932D01F1
:100D300090932E01C601B5010E9416262091D4067B
:100D40003091D5064091D6065091D7060E947B255A
:100D500060932F01709330018093310190933201A1
:100D6000C801B7010E9416262091D8063091D906F5
:100D70004091DA065091DB060E947B256093330197
:100D80007093340180933501909336011F910F9138
:100D9000FF90EF90DF90CF90BF90AF90089581E2E9
:100DA000ECE1F1E0DF011D928A95E9F78091DE0622
:100DB0009091DF06A091E006B091E10680932301B7
:100DC00090932401A0932501B093260110923A013B
:100DD00091E090933B0182E080933C01909320014D
:100DE00008950F931F93CF93DF93EC018B01D901EB
:100DF0008C91FA01E80FF11DE081EE23B1F0E88358
:100E0000E154EA3110F082E00EC08C918F5F8C9338
:100E1000CA01B901A8010E94DA21892B19F021E049
:100E200030E005C081E080931C0120E030E0C90182
:100E3000DF91CF911F910F9108952F923F924F9282
:100E40005F926F927F928F929F92AF92BF92CF925A
:100E5000DF92EF92FF920F931F93DF93CF93CDB763
:100E6000DEB7AC970FB6F894DEBF0FBECDBF2C0136
:100E700019828CE0FE013796DF01482F1D924A95BA
:100E8000E9F7FE017396DF011D928A95E9F710924A
:100E90001C012D9A2224332418A61FA262E0862E5C
:100EA000912C8C0E9D1E53E0652E712C6C0E7D1EB8
:100EB00043E0A42E01E032E0B32EA7C1CB80DC805A
:100EC000ED80FE80C701B6010E9417290E94E3252C
:100ED0009B014A81473421F04D3409F096C11CC171
:100EE0006E317105C9F16F317105D4F4643171054A
:100EF00084F461317105A4F56430710569F16530E0
:100F000071051CF4772354F525C06A30710511F57D
:100F100023C06631710554F16C317105D9F41CC0E0
:100F20006C3571058CF46A357105E4F46C33710528
:100F30003CF466337105E4F46533710559F40CC073
:100F40006035710539F40AC06C35710529F06F35CB
:100F5000710554F010E00DC011E00BC012E009C0A3
:100F600013E007C014E005C016E003C017E001C09D
:100F700019E02531310509F495C026313105A4F574
:100F80002430310509F467C025303105A4F421303F
:100F9000310509F466C02230310524F4232B09F40D
:100FA0005DC01DC12230310509F45EC0233031051A
:100FB00009F015C15CC02231310509F462C023314A
:100FC00031054CF42A30310509F443C02131310593
:100FD00009F005C14FC02331310509F459C024314E
:100FE000310509F0FCC05BC02035310509F46AC049
:100FF00021353105ACF42533310509F459C02633C8
:1010000031054CF42C31310509F44FC02E31310536
:1010100009F0E5C04AC02C3331050CF0E0C04BC0EC
:101020002C35310509F458C02D3531054CF42A35DD
:10103000310509F44BC02B35310509F0D0C049C04A
:101040002D35310509F462C02E35310509F0C7C0D0
:1010500060C0B2E059C0E1E0EFA3C3C010921D012F
:10106000C0C000931D01BDC0B0921D01BAC0A092C6
:101070001D01B7C010923A0100933B01B0923C01B0
:10108000B0C010923A01B0923B0100933C01A9C05C
:1010900000933A01B0923B0110923C01A2C0009330
:1010A0001F019FC010921F019CC0F3E0FFA399C0D5
:1010B00041E048A796C02633310509F090C0109250
:1010C000F5058FC054E050931D018BC000932001A3
:1010D00088C01092200185C0C701B60120E030E031
:1010E00040E251E40E9449280E9417290E94E3250A
:1010F00083E06839780739F06959734009F06FC0A7
:10110000A5E0AFA36EC0B4E0BFA36BC000931E0107
:1011100068C010921E0165C06630710534F46330FA
:1011200071056CF477234CF406C06E31710529F01B
:101130006436710521F010E003C015E001C018E02D
:1011400023303105F9F0243031054CF421303105DC
:1011500099F0223031059CF4232B71F040C02530EA
:10116000310569F125303105D4F02E31310539F0E2
:1011700024363105A1F530C00093210132C0B09270
:1011800021012FC000932201409138015091390173
:10119000662757FD6095762F81E090E00DC0EFEF58
:1011A000E09322014091380150913901662757FDA3
:1011B0006095762F8FEF9FEF0E94B90E12C01092AC
:1011C00022014091380150913901662757FD609501
:1011D000762F80E090E0F0CF0E94FA1202C0A09239
:1011E0001C01112391F021E030E002C0220F331FD7
:1011F0001A95E2F7C90182219321892B21F0F5E0AC
:10120000F0931C0102C0222A332AC401B301A201B7
:101210009E012F5F3F4F0E94F106892B09F04ECEB1
:1012200080911C01882309F082C51982772419A6B0
:101230001AA640E84BA75FEB5CA70F2EF0E0AF2E9D
:10124000F0E0BF2EF0E0CF2EF0E0DF2EF02DABA2CD
:10125000BCA2CDA2DEA2882426E0922E3EC11A8135
:10126000123509F496C0133584F41C343CF4193457
:101270000CF059C0163409F030C11AC01C3409F4FE
:1012800079C0103509F029C17FC0183509F4CFC0E5
:1012900019353CF4133509F498C0143509F01DC113
:1012A000ADC0193509F4DCC01A3509F016C1F1C01A
:1012B000EB80FC800D811E81C801B70120E030E089
:1012C00040E050E00E947425181614F090921C0122
:1012D00080911E01882381F080911F01882309F4E9
:1012E000F8C0C801B70123E333E34BEC51E40E949B
:1012F00049287B018C01EDC080911F01882351F0AA
:10130000C801B70123E333E34BEC51E40E944928C1
:101310007B018C01E0922301F092240100932501CE
:1013200010932601CEC02B813C814D815E8180913E
:101330001F01882351F0CA01B90123E333E34BECC9
:1013400051E40E9449289B01AC01E12FFF27E7FDF2
:10135000F095E954F040EE0FFF1FEE0FFF1F61E024
:1013600070E06C0F7D1FE60FF71F228B338B448BD1
:10137000558BA7C06B817C818D819E810E9417292E
:101380000E94E825862E9DC0AB80BC80CD80DE808B
:1013900098C08B819C81AD81BE818BA39CA3ADA3A2
:1013A000BEA380911F01882309F48BC06BA17CA18F
:1013B0008DA19EA123E333E34BEC51E40E94492825
:1013C0006BA37CA38DA39EA37CC0EB80FC800D81CE
:1013D0001E81C801B70120E030E040E050E00E94EB
:1013E0007425882314F490921C01C801B7010E944F
:1013F000E325709339016093380163C0EB80FC8072
:101400000D811E81C801B70120E030E040E050E0CE
:101410000E947425882314F490921C01C801B7011E
:101420000E9417290E94E825609337014AC02B814A
:101430003C814D815E8180911F01882351F0CA015A
:10144000B90123E333E34BEC51E40E9449289B01AB
:10145000AC012F83388749875A8791E0792A31C0B8
:101460002B813C814D815E8180911F01882351F049
:10147000CA01B90123E333E34BEC51E40E9449284C
:101480009B01AC012B873C874D875E87A2E07A2ABF
:1014900018C02B813C814D815E8180911F01882382
:1014A00051F0CA01B90123E333E34BEC51E40E944C
:1014B00049289B01AC012F87388B498B5A8BB4E0AC
:1014C0007B2A29A53AA54BA55CA5C901DA017C01B7
:1014D0008D01E9A6FAA60BA71CA7CE010296BE01B4
:1014E0006D5F7F4FA2019E012F5F3F4F0E94F1066B
:1014F000892B09F0B4CE972C29A53AA54BA55CA55C
:10150000C901DA018F8F98A3A9A3BAA380911C0106
:10151000882309F00CC4EFA1E33009F457C0E4308C
:1015200028F4E13061F0E23041F419C0FFA1F43059
:1015300009F4E0C0F53009F433C1972C3AC1C60173
:10154000B50120E030E040E050E00E94742588239F
:101550000CF4D2C0C601B5010E94BC022AC142E00F
:10156000841649F4C601B5010E9417290E94E3259B
:101570006130710521F083E080931C0119C177204F
:1015800009F4BAC0AE01495F5F4FE6EFF5E020E035
:1015900030E0672D70E0CB01022E02C09595879553
:1015A0000A94E2F780FF09C0DA01ED90FD900D91F9
:1015B0001C91E082F182028313832F5F3F4F4C5FC7
:1015C0005F4F34962330310531F7F2C0772009F4AC
:1015D00087C0509020018E01095F1F4F8BE2A82E1B
:1015E00081E0B82E9091F5058CE0989F7001112450
:1015F000E6EFF5E0EE0EFF1EB2E08B2EB6E09B2E7E
:10160000CC24DD24672C7724C3010C2C02C09595D3
:1016100087950A94E2F780FF30C05520D9F0D701B2
:101620006D917D918D919C91F40120813181428158
:1016300053810E949B249B01AC01D8016D917D9147
:101640008D919C910E949B24F80160837183828319
:1016500093831DC0D8016D917D918D919C91F50171
:1016600020813181428153810E949B24D8016D9356
:101670007D938D939C9313970AC0F501808191818E
:10168000A281B381F80180839183A283B3830894FC
:10169000C11CD11C0C5F1F4F44E050E0A40EB51ECE
:1016A000E40EF51E840E951E53E0C516D10409F014
:1016B000ABCF6F81788589859A852B853C854D8553
:1016C0005E85EF84F88809891A89A090E206B090B7
:1016D000E306C090E406D090E50688240E9410033B
:1016E0000E94A4028CE0EBE2F1E0DF011D928A95FA
:1016F000E9F75EC0772021F486E080931C0159C091
:10170000ABE2AA2EA1E0BA2EF7E0CF2ED12CCC0E60
:10171000DD1EE2E0EE2EE6E0FE2E00E010E0872C7B
:101720009924C401002E02C0959587950A94E2F78A
:1017300080FF28C08091F50590E0FC01EE0FFF1FAF
:10174000E80FF91FE00FF11FEE0FFF1FEE0FFF1F55
:10175000EA50FA4FD5016D917D918D919C91208138
:101760003181428153810E949A24F6012081318186
:10177000428153810E949A24D7016D937D938D936A
:101780009C9313970F5F1F4FE4E0F0E0AE0EBF1E77
:10179000CE0EDF1EEE0EFF1E0330110511F608C03F
:1017A0008CE0E2E0F6E0DF011D928A95E9F701C0E6
:1017B000992422FC03C0992009F4ADC280901E0137
:1017C000882099F06F8D78A189A19AA120E030E05E
:1017D00040E050E00E94742588233CF480911D0174
:1017E000843019F086E080931C01B8A5BB2339F042
:1017F00080911D01823018F086E080931C01809159
:101800001C01882309F093C2309020018E01095FEA
:101810001F4F9091F5058CE0989F70011124E6EF21
:10182000F5E0EE0EFF1E52E0652E56E0752E4BE2FF
:10183000A42E41E0B42ECC24DD24492C5524C20131
:101840000C2C02C0959587950A94E2F780FF33C06F
:10185000F8A5FF23D1F53320D9F0D7016D917D9103
:101860008D919C91F30120813181428153810E94AD
:101870009B249B01AC01D8016D917D918D919C9130
:101880000E949B24F80160837183828393831DC02F
:10189000D8016D917D918D919C91F50120813181CF
:1018A000428153810E949B24D8016D937D938D9337
:1018B0009C9313970AC0F50180819181A281B38125
:1018C000F80180839183A283B3830894C11CD11C47
:1018D0000C5F1F4F44E050E0E40EF51E640E751ED1
:1018E000A40EB51E53E0C516D10409F0A8CF80910F
:1018F0001D01843048F4823008F04CC0882359F030
:10190000813009F0FBC120C0843009F0F7C1992073
:1019100009F4F4C187C0992009F484C06F817885E7
:1019200089859A852B853C854D855E85EF84F88871
:1019300009891A89A090E206B090E306C090E406F7
:10194000D090E506882423C0992009F46BC06F81EC
:10195000788589859A852B853C854D855E85EF84C4
:10196000F88809891A89882061F4A0912301A9A720
:10197000B0912401BAA7E0912501EBA7F0912601CF
:10198000FCA7E9A5FAA5ABA5BCA55F016D010E9466
:101990001003B4C181E090E000903C0102C0880FC8
:1019A000991F0A94E2F780958921E1F16BA17CA14E
:1019B0008DA19EA120E030E040E050E00E9474251F
:1019C0008823A1F5E0913A01F0E0EE0FFF1FEE0F42
:1019D000FF1F8E010F5F1F4FE00FF11F6289738998
:1019E0008489958920E030E040E050E00E94742531
:1019F0008823E1F480913B0190E0880F991F880FC4
:101A0000991F080F191FD80152966D917D918D91E4
:101A10009C91559720E030E040E050E00E94742512
:101A2000882321F486E080931C0168C16BA17CA10E
:101A30008DA19EA120E030E040E050E00E9474259E
:101A40008E010F5F1F4F882309F4EFC0E0913A0128
:101A5000F0E0EE0FFF1FEE0FFF1FD801AE0FBF1F0C
:101A6000E45EFE4F16966D917D918D919C91199734
:101A700027853089418952890E949A241B012C01B3
:101A8000E0913B01F0E0EE0FFF1FEE0FFF1F0E0F86
:101A90001F1FE45EFE4FD80116966D917D918D91CA
:101AA0009C91199727853089418952890E949A24EF
:101AB0003B014C018CE0FE017396DF011D928A957B
:101AC000E9F76BA17CA18DA19EA120E030E040E868
:101AD00050E40E9449282BA13CA14DA15EA10E9487
:101AE00049287B018C01C201B101A20191010E9430
:101AF00049289B01AC01C801B7010E949A247B01CF
:101B00008C01C401B301A40193010E9449289B01E7
:101B1000AC01C801B7010E949A240E94D6287B011B
:101B20008C01C201B101A40193010E9484279B0191
:101B3000AC0117FB109517F91095C801B7010E9469
:101B40007B256B017C01A70196010E941E29882339
:101B500021F084E080931C01EAC080911D01833054
:101B600021F4F7FAF094F7F8F0946BA17CA18DA121
:101B70009EA120E030E040E050E00E9474258823E0
:101B80006CF4F7FAF094F7F8F0944BA15CA16DA116
:101B90007EA170584BA35CA36DA37EA300913A0174
:101BA000A02EBB24AA0CBB1CAA0CBB1C8E010F5F71
:101BB0001F4FA00EB11EC401B301A70196010E94E0
:101BC00049289B01AC01C201B1010E949A2420E086
:101BD00030E040E05FE30E944928D50152966D93C2
:101BE0007D938D939C93559780913B0190E0880F56
:101BF000991F880F991F080F191FC201B101A70172
:101C000096010E9449289B01AC01C401B3010E94C6
:101C10009B2420E030E040E05FE30E944928F80187
:101C2000628B738B848B958B23C0E0913A01F0E03B
:101C3000EE0FFF1FEE0FFF1FE00FF11F6289738988
:101C40008489958920913B0130E0220F331F220FB8
:101C5000331F020F131FD80152962D913D914D91C4
:101C60005C9155970E9484276BA37CA38DA39EA3B0
:101C700090911D0120913A0100913B01E0903C01BF
:101C800080901E01882061F4B0912301B9A7E091F2
:101C90002401EAA7F0912501FBA7409126014CA75A
:101CA00000D000D00F92EDB7FEB731964BA15CA1EA
:101CB0006DA17EA1ADB7BEB711964D935D936D93A7
:101CC0007C93149780E0923009F481E084838BE266
:101CD00091E0BE01695F7F4FAE014D5E5F4F39A558
:101CE000EAA5FBA5ACA5A32EBE2ECF2EDA2E0E9410
:101CF00055030F900F900F900F900F9080911C0143
:101D00008823A9F4ABE2B1E0FE0137968CE00190A4
:101D10000D928150E1F780912101882331F00E94DA
:101D200096211092E8051092210180911C01AC9639
:101D30000FB6F894DEBF0FBECDBFCF91DF911F91DC
:101D40000F91FF90EF90DF90CF90BF90AF909F905A
:101D50008F907F906F905F904F903F902F9008955D
:101D6000249A10923D012C98089510923D012C98D0
:101D70000895CF93DF93EC0180913D0190E0C81767
:101D8000D90759F00E949621209711F02C9A03C090
:101D900010923D012C98C0933D01DF91CF910895A1
:101DA000EF92FF920F931F937B018C0122E030E0B2
:101DB00040E050E00E947B29205C3D4B404F5F4F4C
:101DC000CA01B901A80197010E947B292150304026
:101DD0003093C5002093C400E0ECF0E080818D7F5B
:101DE0008083E1ECF0E08081806180838081886085
:101DF00080838081806880831F910F91FF90EF9096
:101E00000895282FE09140019E2F9F5F903431F478
:101E100090E004C080910F0684FD0FC080914101C5
:101E20009817C1F3F0E0E057F94F208390934001F9
:101E30008091C10080628093C10008951F920F922B
:101E40000FB60F9211248F939F93EF93FF9380917E
:101E50004101E82FF0E0E057F94F90819093C600E0
:101E6000982F9F5F903409F490E090934101809106
:101E70004001981729F48091C1008F7D8093C100A3
:101E8000FF91EF919F918F910F900FBE0F901F9038
:101E9000189590913F0180913E01891711F4EFEF61
:101EA0000DC0E92FF0E0E05FF94FE081892F8F5FEF
:101EB00080933F01803811F410923F018E2F0895D6
:101EC00080913E0180933F0108951F920F920FB6BB
:101ED0000F9211242F933F934F935F936F937F93B0
:101EE0008F939F93AF93BF93EF93FF939091C6000F
:101EF0009532D1F0963228F49831D1F0913221F513
:101F00000FC09F3319F09E37F9F404C080910F067B
:101F1000816003C080910F06826080930F0625C008
:101F200080910F068860F9CF80910F068062F5CF0F
:101F300080910F0684FD04C00E94F8110E94B50E26
:101F400080910F068061E9CFE0913E012E2F2F5F37
:101F5000203809F420E080913F01281731F0F0E0AB
:101F6000E05FF94F908320933E01FF91EF91BF9185
:101F7000AF919F918F917F916F915F914F913F9121
:101F80002F910F900FBE0F901F90189580917601A2
:101F9000882361F482E791E00E947F2481E591E04B
:101FA0000E947F2410927401109275010895CF93BE
:101FB000DF93EC01009751F486B12D9885FD03C0A5
:101FC0008AE491E039C085E491E036C08DE391E088
:101FD0000E947F24C330D105D1F0C430D1053CF438
:101FE000C130D10571F0C230D105E9F40DC0C53062
:101FF000D10599F0C530D1056CF0C630D10599F402
:102000000FC089E291E018C08FE091E015C087EF22
:1020100090E012C080EE90E00FC088EC90E00CC021
:1020200086EB90E009C0BE01882777FD8095982F48
:102030000E94322483EB90E00E947F24DF91CF91B5
:102040000895FC018081843221F4CF010E94DB19C4
:102050000895CF010E941D0708951F9383B146B1D3
:10206000282F30E0C90196958795182F109511708B
:1020700022FF126023FF1460842F41FF186082FF4B
:10208000106185FF106280E091E00E948D24612F35
:1020900070E080E090E00E94322485E091E00E94B0
:1020A0008D241F910895DF93CF93CDB7DEB72C9782
:1020B0000FB6F894DEBF0FBECDBFDE011196E9EE7C
:1020C000F5E08CE001900D928150E1F789E091E01C
:1020D0000E948D2469817A818B819C810E941626C1
:1020E0002091D0063091D1064091D2065091D3066E
:1020F0000E947B250E94C32380E191E00E948D24F1
:102100006D817E818F8198850E9416262091D4064C
:102110003091D5064091D6065091D7060E947B2576
:102120000E94C32380E191E00E948D2469857A8515
:102130008B859C850E9416262091D8063091D90661
:102140004091DA065091DB060E947B250E94C32352
:1021500082E191E00E948D2469817A818B819C814A
:102160000E9416262091D0063091D1064091D206C9
:102170005091D3060E947B252091F50530E0F901AE
:10218000EE0FFF1FE20FF31FEE0FFF1FEE0FFF1FFB
:10219000EA51FA4F20893189428953890E949A2451
:1021A00020910206309103064091040650910506E5
:1021B0000E949A240E94C32380E191E00E948D2412
:1021C0006D817E818F8198850E9416262091D4068C
:1021D0003091D5064091D6065091D7060E947B25B6
:1021E0002091F50530E0F901EE0FFF1FE20FF31F1C
:1021F000EE0FFF1FEE0FFF1FEA51FA4F24893589BA
:10220000468957890E949A24209106063091070634
:1022100040910806509109060E949A240E94C32307
:1022200080E191E00E948D2469857A858B859C856B
:102230000E9416262091D8063091D9064091DA06E0
:102240005091DB060E947B252091F50530E0F901D5
:10225000EE0FFF1FE20FF31FEE0FFF1FEE0FFF1F2A
:10226000EA51FA4F208D318D428D538D0E949A2470
:1022700020910A0630910B0640910C0650910D06F4
:102280000E949A240E94C32385E091E00E948D243D
:102290002C960FB6F894DEBF0FBECDBFCF91DF9165
:1022A00008951F9335990EC080917601882361F4BB
:1022B0000E94F8110E94B50E81E08093E60580939C
:1022C000760102C01092760188B198E0892788B91A
:1022D00080910F068823C9F180910F06182F84FF83
:1022E00004C081E08093E60530C080FF07C00E94F3
:1022F000531080910F068E7F80930F0615FF07C045
:102300000E942D1080910F068F7D80930F0613FF82
:1023100007C00E94AF1280910F06877F80930F063F
:1023200012FF07C00E94BD1280910F068B7F809321
:102330000F0611FF0AC00E948A1281E08093E8050F
:1023400080910F068D7F80930F061F9108951F9334
:1023500011E046C02A3011F02D30E1F40E945111F5
:102360008091E605882309F041C0E0917401EE23D5
:1023700051F0F0E0EE5BFE4F108282E491E00E94AB
:10238000211090E002C080E090E00E94D70F1092F0
:10239000740106C080917501882329F0293201F566
:1023A000109275011DC02132D8F02F32C9F02832A9
:1023B00019F41093750114C090917401913380F455
:1023C000822F8156E92FF0E09F5F8A3120F4EE5B87
:1023D000FE4F205202C0EE5BFE4F208390937401AB
:1023E0000E94490F282F8F3F09F0B4CF1F91089505
:1023F00080916F008D7F80936F008AEF90E020E9DD
:1024000031E0F9013197F1F70197D9F7289808954C
:102410001F920F920FB60F9211248F939F939BB12F
:102420008091E6068C71937E892B8BB91092B10056
:102430009F918F910F900FBE0F901F9018959B0149
:10244000AC01203486E0380780E0480780E0580778
:1024500020F420E436E040E050E060E070E788E3FC
:1024600099E30E945929C901DA01803020E09207DE
:1024700021E0A20720E0B20738F4FC019C0140E013
:1024800050E060E070E031C0803020E0920728E04A
:10249000A20720E0B207A8F473E0B695A795979538
:1024A00087957A95D1F7FC019C0140E050E063E00C
:1024B000220F331F441F551F6A95D1F761E070E06A
:1024C00014C026E0B695A795979587952A95D1F7DC
:1024D000FC019C0140E050E086E0220F331F441FC6
:1024E000551F8A95D1F762E070E080918100962FA8
:1024F0009F5F887F982B90938100F0938900E093F1
:10250000880020938C0130938D0140938E0150936D
:102510008F01089580910E06882301F58091E705CB
:102520008823E1F481E080930E068091E606809393
:102530009F018091DD0690E0A0E0B0E00297A10944
:10254000B109880F991FAA1FBB1F819580939E0117
:10255000289A80916F00826080936F000895809127
:10256000E705882349F480910E06882329F010920C
:10257000E80581E08093E7050895E0919C01F091E2
:102580009D013097A1F16585768587859089209199
:1025900088013091890140918A0150918B01621B21
:1025A000730B840B950B0E949F1D10929401109247
:1025B0009501109296011092970160E070E080E022
:1025C00090E00E941F1280E091E7A2E0B0E08093CB
:1025D000900190939101A0939201B0939301109276
:1025E00088011092890110928A0110928B01109239
:1025F000E7050895409A82E390E00E94C721409841
:10260000089589E187B986EE88B98AB18C6F8AB955
:102610008BB183709091E606892B8BB984B181626E
:1026200084B9E1E8F0E080818F7E808380818860DA
:102630008083E0E8F0E080818D7F808380818E7FE1
:10264000808380818F73808380818F7C80831092D0
:10265000B0001092B100E0E7F0E0808181608083FB
:102660000E94FA120E94F811089584E2E8E7F1E06E
:10267000DF011D928A95E9F760E476E080E090E062
:102680000E941F1210929D0110929C011092A001B5
:1026900008951F920F920FB60F921124EF92FF929E
:1026A0000F931F932F933F934F935F936F937F935A
:1026B0008F939F93AF93BF93CF93DF93EF93FF934A
:1026C0008091A001882309F074C39BB120919F01E0
:1026D000822F807E9F71892B8BB983B18093770184
:1026E0008091770181FD05C025FF03C0922F9B7F5C
:1026F00001C0922F8091770182FD02C026FD977F55
:102700008091770183FD02C027FD9F7E8BB1837E80
:10271000982B9BB98091DD0690E0A0E0B0E0029795
:10272000A109B109880F991FAA1FBB1F819580932A
:10273000B20082E08093B10081E08093A0017894A0
:1027400080919C0190919D01892B09F081C00E948C
:102750004B1AEC0190939D0180939C01009709F422
:102760006EC08091E7058823D1F46BA17CA18DA177
:102770009EA160939401709395018093960190932C
:1027800097010E941F1280E091E7A2E0B0E08093E1
:10279000900190939101A0939201B09393012BA586
:1027A0003CA54DA55EA5DA01C901B595A7959795FC
:1027B0008795820F931FA41FB51F80939801909354
:1027C0009901A0939A01B0939B012D853E854F8579
:1027D0005889DA01C901B595A79597958795B09560
:1027E000A095909581959F4FAF4FBF4F80937801F3
:1027F00090937901A0937A01B0937B0180937C013F
:1028000090937D01A0937E01B0937F01809380011E
:1028100090938101A0938201B0938301209384015E
:10282000309385014093860150938701109288016F
:102830001092890110928A0110928B0109C00E94A6
:10284000F81110920E0680910F06846080930F0697
:10285000E0919C01F0919D01309709F4A1C2208183
:1028600020939F01409178015091790160917A0104
:1028700070917B0181819281A381B481480F591F9E
:102880006A1F7B1F409378015093790160937A010E
:1028900070937B011416150616061706C4F52460FE
:1028A00020939F018091840190918501A0918601E0
:1028B000B0918701481B590B6A0B7B0B4093780141
:1028C0005093790160937A0170937B0125FF0CC0CE
:1028D0008091E9059091EA05A091EB05B091EC0596
:1028E0000197A109B1090BC08091E9059091EA0512
:1028F000A091EB05B091EC050196A11DB11D80934F
:10290000E9059093EA05A093EB05B093EC0540919F
:102910007C0150917D0160917E0170917F018581E4
:102920009681A781B085480F591F6A1F7B1F40936E
:102930007C0150937D0160937E0170937F0114169A
:10294000150616061706D4F520919F0128602093DE
:102950009F018091840190918501A0918601B091A1
:102960008701481B590B6A0B7B0B40937C015093EA
:102970007D0160937E0170937F0126FF0CC08091E2
:10298000ED059091EE05A091EF05B091F00501974E
:10299000A109B1090BC08091ED059091EE05A091C0
:1029A000EF05B091F0050196A11DB11D8093ED05D5
:1029B0009093EE05A093EF05B093F0054091800150
:1029C000509181016091820170918301818592858E
:1029D000A385B485480F591F6A1F7B1F4093800150
:1029E0005093810160938201709383011416150640
:1029F00016061706D4F520919F01206120939F01B0
:102A00008091840190918501A0918601B091870108
:102A1000481B590B6A0B7B0B40938001509381013B
:102A2000609382017093830127FF0CC08091F105B0
:102A30009091F205A091F305B091F4050197A109D9
:102A4000B1090BC08091F1059091F205A091F305B9
:102A5000B091F4050196A11DB11D8093F1059093ED
:102A6000F205A093F305B093F4052091880130910D
:102A7000890140918A0150918B012F5F3F4F4F4F49
:102A80005F4F209388013093890140938A015093CE
:102A90008B0185859685A785B089281739074A0750
:102AA0005B0708F077C18091E705882309F45DC0D2
:102AB00020918C0130918D0140918E0150918F01B8
:102AC0008091900190919101A0919201B091930118
:102AD000280F391F4A1F5B1F2093900130939101EB
:102AE0004093920150939301213002EE300704E0AD
:102AF000400700E0500708F453C12050324E4440D4
:102B00005040209390013093910140939201509353
:102B1000930120919401309195014091960150913B
:102B2000970163A574A585A596A562177307840709
:102B3000950750F00E94F81110920E0680910F0632
:102B4000846080930F062CC179018A01E61AF70A86
:102B5000080B190BC801B701E0929401F09295019E
:102B600000939601109397016CC087A590A9A1A925
:102B7000B2A9281739074A075B0708F065C02091FA
:102B80008C0130918D0140918E0150918F01809187
:102B9000900190919101A0919201B0919301280F21
:102BA000391F4A1F5B1F209390013093910140937E
:102BB000920150939301213002EE300704E0400768
:102BC00000E0500708F4ECC02050324E4440504022
:102BD000209390013093910140939201509393017F
:102BE00083A594A5A5A5B6A5209194013091950142
:102BF0004091960150919701820F931FA41FB51F1A
:102C00008093940190939501A0939601B0939701BE
:102C100027A930AD41AD52AD82179307A407B50780
:102C200040F0209394013093950140939601509386
:102C30009701609194017091950180919601909116
:102C400097010E941F12ACC083A994A9A5A9B6A997
:102C5000281739074A075B0708F480C02817390787
:102C60004A075B0769F480E091E7A2E0B0E0809357
:102C7000900190939101A0939201B093930190C021
:102C800020918C0130918D0140918E0150918F01E6
:102C90008091900190919101A0919201B091930146
:102CA000280F391F4A1F5B1F209390013093910119
:102CB0004093920150939301213012EE310714E0BA
:102CC000410710E0510708F46BC02050324E4440D9
:102CD0005040209390013093910140939201509382
:102CE000930120919401309195014091960150916A
:102CF00097018091980190919901A0919A01B091CA
:102D00009B0182179307A407B50748F483A594A5F0
:102D1000A5A5B6A5281B390B4A0B5B0B04C056951D
:102D200047953795279520939401309395014093CB
:102D300096015093970127A130A541A552A58091F6
:102D4000940190919501A0919601B09197018217FD
:102D50009307A407B50708F06CCF63CF27A930AD60
:102D600041AD52AD8091940190919501A091960151
:102D7000B091970182179307A407B50789F02093B4
:102D80009401309395014093960150939701CA01A5
:102D9000B90157CF10929D0110929C010E943C1ADC
:102DA00080919F019091E606892780939F01109260
:102DB000A001FF91EF91DF91CF91BF91AF919F91D2
:102DC0008F917F916F915F914F913F912F911F91C3
:102DD0000F91FF90EF900F900FBE0F901F901895DE
:102DE000F999FECF92BD81BD81E08FBB80B508957A
:102DF000F894F999FECF92BD81BD81E08FBB40B5BB
:102E00004627842F992787FD9095262F30E082232F
:102E10009323892B39F06F3F19F060BD84E006C021
:102E200084E104C0442321F060BD84E28FBBF99AA1
:102E3000789408958F929F92AF92BF92CF92DF9233
:102E4000EF92FF920F93DF93CF9300D0CDB7DEB711
:102E50005C016B017A014A0100E01EC0002319F0F9
:102E600021E030E008C0202F332727FD30952227AE
:102E7000330F221F3327F60161916F01062F020FD6
:102E80009C012F5F3F4F3A8329830E94F8160894D4
:102E90008108910889819A8181149104F9F6C7010A
:102EA0008A0D9B1D602F0E94F8160F900F90CF91F6
:102EB000DF910F91FF90EF90DF90CF90BF90AF9098
:102EC0009F908F900895CF93DF93EC01FB019A01BF
:102ED00090E0B1E019C0F999FECFF2BDE1BDBFBBF2
:102EE000A0B5992319F081E090E008C0892F9927B7
:102EF00087FD90958827990F881F992731969A2FDB
:102F0000980FA993215030402115310521F7460F24
:102F1000571FF999FECF52BD41BD81E08FBB80B5EF
:102F200020E030E0981711F421E030E0C901DF9192
:102F3000CF91089585E595E5A5E0B4E48093D006AA
:102F40009093D106A093D206B093D3068093D40673
:102F50009093D506A093D606B093D7068093D80653
:102F60009093D906A093DA06B093DB0689E18093AB
:102F7000DD0680E090E0AAE7B3E48093DE0690935C
:102F8000DF06A093E006B093E10680E090ECA8EAAB
:102F9000B4E48093E2069093E306A093E406B09332
:102FA000E50680E090E0A4E3B2E48093EB06909322
:102FB000EC06A093ED06B093EE068DEC9CECACEC29
:102FC000BDE38093E7069093E806A093E906B093EB
:102FD000EA061092E6068DEC9CECACE4BDE380932F
:102FE000EF069093F006A093F106B093F2060895D1
:102FF00080E090E064E00E94F81681E090E060EDEF
:1030000076E043E250E00E941A170895EF92FF9293
:103010000F931F93CF93DF93EC017A018B018530DF
:10302000910509F455C08630910554F4833091051B
:1030300081F1843091050CF042C097FF12C086C028
:103040008730910509F456C0873091050CF449C0CA
:103050008830910509F457C08930910509F076C090
:1030600069C0CB01BA0120E030E040E050E00E94AE
:10307000742518161CF08DE092E06FC0CC0FDD1F98
:10308000CC0FDD1FC053D94FE882F9820A831B831E
:1030900060C0CB01BA0120E030E040E450E40E947F
:1030A000742588231CF486EE91E057C0C801B7014F
:1030B0000E94AC280E94E8256093DD064AC0409338
:1030C000DE065093DF066093E0067093E10641C090
:1030D0004093E2065093E3066093E4067093E5069E
:1030E00038C04093E7065093E8066093E906709372
:1030F000EA062FC0CB01BA010E9417290E94E825D9
:103100006093E60626C0CB01BA0120E030E040E73C
:1031100052E40E94492820E030E040E752E40E9457
:1031200049286093EB067093EC068093ED0690932C
:10313000EE060FC0DB01CA01BF778093EF069093C4
:10314000F006A093F106B093F20603C082ED91E081
:1031500004C00E94F8178DEB91E00E947F24DF915C
:10316000CF911F910F91FF90EF9008951F9380E0F2
:1031700090E00E94F016182F843081F480ED96E0E4
:1031800061E070E043E250E00E94631720E0892B89
:1031900009F421E081E0282730E05EC0813021F58C
:1031A00080ED96E061E070E04BE150E00E94631733
:1031B000892B09F44FC080E090E0A4E3B2E480934F
:1031C000EB069093EC06A093ED06B093EE068DEC23
:1031D0009CECACE4BDE38093EF069093F006A093E3
:1031E000F106B093F20631C08250823098F580ED3E
:1031F00096E061E070E043E250E00E946317892BA3
:1032000049F1123061F48DEC9CECACE4BDE38093A9
:10321000EF069093F006A093F106B093F20660914A
:10322000EB067091EC068091ED069091EE0620E0A1
:1032300030E041E655E40E9449286093EB06709324
:10324000EC068093ED069093EE060E94F81721E0BD
:1032500030E002C020E030E0C9011F91089580EA0B
:1032600093E00E947F246091D0067091D1068091F6
:10327000D2069091D3060E94C3238BE893E00E946C
:103280007F246091D4067091D5068091D6069091E6
:10329000D7060E94C32386E793E00E947F246091B3
:1032A000D8067091D9068091DA069091DB060E94CB
:1032B000C32381E693E00E947F246091DD0670E0E5
:1032C00080E090E00E9432248FE393E00E947F240C
:1032D0006091DE067091DF068091E0069091E10634
:1032E0000E94C3238CE193E00E947F246091E20658
:1032F0007091E3068091E4069091E5060E94C32355
:1033000089EF92E00E947F246091E7067091E806C1
:103310008091E9069091EA060E94C32380EE92E034
:103320000E947F246091E60670E080E090E00E94B9
:1033300032248DEB92E00E947F248091E6060E9469
:103340004E2484EB92E00E947F246091EB06709102
:10335000EC068091ED069091EE0620E030E041E62B
:1033600055E40E947B250E94C32381E992E00E94DC
:103370007F246091EF067091F0068091F1069091A4
:10338000F2060E94C3238BE692E00E947F2486E22D
:1033900092E00E947F2408950E94B618892B51F470
:1033A00082E891E00E947F240E949A170E94F817F9
:1033B0000E942F190895EF92FF920F931F93DF93AE
:1033C000CF93CDB7DEB729970FB6F894DEBF0FBE07
:1033D000CDBF8C0181E08983F80180818432E1F5E1
:1033E0008181882319F40E942F1934C0C8017E01FD
:1033F0000894E11CF11CB701AE014E5F5F4F0E94C3
:10340000DA21892B59F19981F801E90FF11D8081A9
:103410008D3311F59F5F9983C801B701AE014A5FF3
:103420005F4F0E94DA21892BC9F08981080F111D95
:10343000F8018081882381F46A817B818C819D8160
:103440000E94E325DC01CB014E815F81688579858F
:103450000E94061880E003C083E001C081E0299645
:103460000FB6F894DEBF0FBECDBFCF91DF911F9195
:103470000F91FF90EF9008959091C7058091C80536
:10348000981741F08091C8058F5F823109F480E080
:103490008093C80508959091C7058091C805981735
:1034A00019F420E030E008C09091C8058BE3989FA4
:1034B000900111242F553E4FC90108959091C805E0
:1034C00020E08091C905981709F421E0822F089522
:1034D000EF92FF920F931F936093CA057093CB05F1
:1034E0008093CC059093CD052093CE053093CF05E6
:1034F0004093D0055093D105E092D205F092D305C8
:103500000093D4051093D5051F910F91FF90EF9074
:1035100008958F929F92AF92BF92CF92DF92EF92D7
:10352000FF920F931F93CF93DF93EC016B010097F2
:1035300009F460C08AA1882309F05CC0ED88FE8888
:103540000F89188DFB01B588A6889788808CC801E3
:10355000B7012B2D3A2D492D582D0E947425882313
:103560000CF048C0C801B701A80197010E94492882
:103570007B018C016091EB067091EC068091ED0669
:103580009091EE06905820E030E040E050EC0E9430
:1035900049282D8D3E8D4F8D58A10E9449289B01B1
:1035A000AC01C801B7010E949B240E94D6287B0170
:1035B0008C016B2D7A2D892D982D9701A8010E94E1
:1035C0007425882324F4EB2CFA2C092D182D6B2D4F
:1035D0007A2D892D982D9701A8010E9474258823A2
:1035E00049F0C701D801F601858B968BA78BB08F68
:1035F00081E081A3DF91CF911F910F91FF90EF9018
:10360000DF90CF90BF90AF909F908F9008952F92B2
:103610003F924F925F926F927F928F929F92AF9262
:10362000BF92CF92DF92EF92FF920F931F93DF939F
:10363000CF93CDB7DEB768970FB6F894DEBF0FBE55
:10364000CDBF1C016A017B0128013901DC01D7963D
:103650006D917D918D919C91DA970E9414264B017A
:103660005C01A70196010E9449280E9461250E94E1
:10367000E8257B018C01F10163A374A385A396A3C4
:10368000C501B401A30192010E9449280E9461254D
:103690000E94E82569877A878B879C87D101979656
:1036A0006D937D938D939C939A979B966D917D914D
:1036B0008D919C919E9722E330E040E050E00E9483
:1036C0003A290E94162620E030E040E752E40E94AA
:1036D00049280E94E3252B013C01C801B7010E9443
:1036E00014267B018C01C301B2010E9416266D8352
:1036F0007E838F839887C501B401A50194010E9440
:1037000049285B016C01C801B701A80197010E941B
:1037100049286D877E878F87988B6D817E818F8109
:1037200098859B01AC010E949B24698B7A8B8B8BC3
:103730009C8BC601B5012D853E854F8558890E9419
:103740009A2429893A894B895C890E947B250E94A9
:1037500061250E94E32569837A838B839C83698535
:103760007A858B859C850E9414269B01AC010E9462
:1037700049286D8B7E8B8F8B988FA60195010E94B7
:103780009A247B018C017094609450944094411C65
:10379000511C611C711CC301B2010E9416269B01C1
:1037A000AC010E949B249B01AC01C801B7010E949F
:1037B0007B250E945126F101A584B684C784D08858
:1037C0008601750129813A814B815C81E21AF30AF5
:1037D000040B150B0E94E325A8019701261B370B4C
:1037E000480B590BDA01C90157FF4AC0C601B501A0
:1037F0000E9416269B01AC0169897A898B899C8974
:103800000E9449282D853E854F8558890E949A241B
:103810002D893E894F89588D0E949B247B018C0104
:103820006D817E818F81988520E030E040E850E412
:103830000E9449289B01AC01C801B7010E947B2569
:103840000E9461250E94E325AC01CB01DA01BC0195
:10385000CD0197FF04C060E070E080E090E06983F4
:103860007A838B839C83A616B706C806D90624F4F0
:10387000A982BA82CB82DC8280E090E0A0E0B0E056
:1038800029813A814B815C81F10127A730AB41ABA3
:1038900052AB820F931FA41FB51F83AB94ABA5AB94
:1038A000B6AB68960FB6F894DEBF0FBECDBFCF9112
:1038B000DF911F910F91FF90EF90DF90CF90BF901D
:1038C000AF909F908F907F906F905F904F903F90C0
:1038D0002F9008952F923F924F925F927F928F92F6
:1038E0009F92AF92BF92CF92DF92EF92FF920F938F
:1038F0001F93CF93DF93D090C7058091EB069091F3
:10390000EC06A091ED06B091EE061C012D0157FAD0
:10391000509457F8509400E010E0C0E0D0E0BB2491
:10392000B3943BE3C32E72C0DD2011F422E1D22E0A
:10393000DA94209709F463C00115110509F45FC0FA
:10394000A98C9A8C8B8C7C8C6D897E898F89988DC3
:103950002A2D392D482D572D0E947425882309F4CE
:103960004EC08AA1882309F041C0F801E588F68895
:103970000789108D6A2D792D882D972DA801970123
:103980000E947727181694F5C801B701A80197017E
:103990000E9449287B018C01C201B10120E030E086
:1039A00040E050EC0E9449282D8D3E8D4F8D58A14E
:1039B0000E9449289B01AC01C801B7010E949B24C9
:1039C0000E94D628162F072FF82EE92E6A2D792D62
:1039D000882D972D212F302F4F2D5E2D0E9474257D
:1039E00087FD04C0A12E902E8F2C7E2C8A2D992D20
:1039F000A82DB72D8D8B9E8BAF8BB88FB9A2DC9C79
:103A0000C00111248E01EC01CF55DE4F8091C80515
:103A1000D81609F089CFF090C80520E030E000E02A
:103A200010E09BE3E92E11C0FE9CE0011124CF556C
:103A3000DE4FC901B801AE010E94891AF394F2E188
:103A4000FF1609F4FF2498018E018091C705F8162E
:103A500059F7C901B80140E050E00E94891A7090FE
:103A6000C805C0E0D0E08BE3582E35C0759C4001FE
:103A7000112481EA91E0880E991E209731F189A1E5
:103A8000882321F4F40181A18823F9F0E988FA88D8
:103A90000B891C896D897E898F89988DA801970172
:103AA0000E947B255B016C01F40165897689878919
:103AB000908DA80197010E947B258B019C01CE016E
:103AC000B601A5010E94071B19A27394F2E17F16AB
:103AD00009F47724E4018091C705781639F6E9885E
:103AE000FA880B891C896D897E898F89988DA80138
:103AF00097010E947B255B016C016DEC7CEC8CE4F2
:103B00009EE3A80197010E947B258B019C01CE01B9
:103B1000B601A5010E94071B19A2DF91CF911F9149
:103B20000F91FF90EF90DF90CF90BF90AF909F905C
:103B30008F907F905F904F903F902F900895AF921D
:103B4000BF92CF92DF92EF92FF920F931F93CF938A
:103B5000DF935B016C019091C8058BE3989FE001B6
:103B60001124CF55DE4FC601B5010E9416262D8DBA
:103B70003E8D4F8D58A10E9449287B018C016D8597
:103B80007E858F8598890E9416269B01AC01C8010D
:103B9000B7010E947B256D8F7E8F8F8F98A3AD8696
:103BA000BE86CF86D88A80E090E0A0E0B0E08D8B22
:103BB0009E8BAF8BB88F898F9A8FAB8FBC8F1AA2D9
:103BC00081E089A30E946A1CDF91CF911F910F9120
:103BD000FF90EF90DF90CF90BF90AF9008952F921D
:103BE0003F924F925F926F927F928F929F92AF928D
:103BF000BF92CF92DF92EF92FF920F931F93DF93CA
:103C0000CF93CDB7DEB7AF970FB6F894DEBF0FBE38
:103C1000CDBF29013A01ADA2BEA2CFA2D8A689A6E6
:103C20003091C7052BE3329F1001112421EA31E0C6
:103C3000220E331E2091D0063091D1064091D2063B
:103C40005091D3060E9449280E94192869837A83DB
:103C50008B839C83C301B2012091D4063091D50699
:103C60004091D6065091D7060E9449280E941928F3
:103C70006D837E838F839887C801B7012091D80612
:103C80003091D9064091DA065091DB060E9449280E
:103C90000E94192869877A878B879C87D1011C929B
:103CA00029813A814B815C818091CA059091CB0535
:103CB000A091CC05B091CD05281739074A075B07BD
:103CC0001CF480E2F10180832D813E814F81588573
:103CD0008091CE059091CF05A091D005B091D105EE
:103CE000281739074A075B0724F4D1018C918064B7
:103CF0008C9329853A854B855C858091D20590917E
:103D0000D305A091D405B091D505281739074A07E6
:103D10005B0724F4F10180818068808329813A81E6
:103D20004B815C818091CA059091CB05A091CC0517
:103D3000B091CD05281B390B4A0B5B0B57FF07C011
:103D400050954095309521953F4F4F4F5F4FD10192
:103D500011962D933D934D935C931497AD80BE8047
:103D6000CF80D8848091CE059091CF05A091D005C9
:103D7000B091D105A81AB90ACA0ADB0AF101A582D5
:103D8000B682C782D086D7FE0BC088279927DC0170
:103D90008A199B09AC09BD0985839683A783B087DF
:103DA00029853A854B855C858091D2059091D30514
:103DB000A091D405B091D505281B390B4A0B5B0B9C
:103DC00057FF07C050954095309521953F4F4F4F75
:103DD0005F4FD10119962D933D934D935C931C97A2
:103DE0001596ED90FD900D911C91189711968D915F
:103DF0009D910D90BC91A02D8E159F05A007B10738
:103E000010F4D801C70182179307A407B50710F46F
:103E1000DA01C901F10185879687A787B08B0097E2
:103E2000A105B10509F469C269817A818B819C8100
:103E30002091CA053091CB054091CC055091CD051C
:103E4000621B730B840B950B0E9416262091D006E3
:103E50003091D1064091D2065091D3060E947B2525
:103E600069A37AA38BA39CA3C601B5010E94162661
:103E70002091D4063091D5064091D6065091D706B0
:103E80000E947B256D8F7E8F8F8F98A369857A85A1
:103E90008B859C852091D2053091D3054091D40526
:103EA0005091D505621B730B840B950B0E9416264F
:103EB0002091D8063091D9064091DA065091DB0660
:103EC0000E947B25698F7A8F8B8F9C8F69A17AA145
:103ED0008BA19CA19B01AC010E9449287B018C0114
:103EE0006D8D7E8D8F8D98A19B01AC010E9449281C
:103EF0009B01AC01C801B7010E949B247B018C018E
:103F0000698D7A8D8B8D9C8D9B01AC010E94492817
:103F10009B01AC01C801B7010E949B240E94D628D6
:103F20007B018C01D1015D966D937D938D939C9364
:103F3000909760E070E080E89FE3A80197010E94FD
:103F40007B253B014C01B9A5BB2349F46DA17EA1A2
:103F50008FA198A5A40193010E9449280AC060E09E
:103F600070E080E89FE32DA13EA14FA158A50E94DB
:103F70007B255B016C01C801B701A60195010E9478
:103F800049286AA77BA78CA79DA7F101618B728B3B
:103F9000838B948B65857685878590890E9416260C
:103FA0007B018C01A60195010E9449280E94612590
:103FB0000E94E825D101D7966D937D938D939C93B4
:103FC000DA97C801B701A40193010E944928209102
:103FD000EB063091EC064091ED065091EE060E9402
:103FE000492820E030E84BE355E40E947B250E94FD
:103FF00061250E94E325F10163A774A785A796A711
:1040000069A17AA18BA19CA1A40193010E944928D6
:104010007B018C016D877E878F87988B6D8D7E8D60
:104020008F8D98A1A40193010E9449285B016C0126
:10403000698B7A8B8B8B9C8B698D7A8D8B8D9C8D0C
:10404000A40193010E9449283B014C016D8B7E8B9A
:104050008F8B988F9091C7058091C805981709F4A8
:10406000BDC0F091E205FEA72091E3052FA7509077
:10407000E4054090E5056F2F722F852D942D20E0EB
:1040800030E040E050E00E94772718160CF0A6C000
:104090006091D6057091D7058091D8059091D9058A
:1040A0009058A80197010E9449287B018C016091DA
:1040B000DA057091DB058091DC059091DD05A601A4
:1040C00095010E9449289B01AC01C801B7010E94DB
:1040D0009A247B018C01C401B3012091DE0530914B
:1040E000DF054091E0055091E1050E9449289B01C0
:1040F000AC01C801B7010E949A247B018C0123E323
:1041000033E343E75FE30E94742588230CF066C025
:104110006EA57FA5852D942D2AA53BA54CA55DA553
:104120000E94742587FD08C08AA59BA5ACA5BDA5E6
:104130008EA79FA75A2E4B2EC801B70123E333E366
:1041400043E75FEB0E94772718160CF04EC060E043
:1041500070E080E89FE3A80197010E949A2420E084
:1041600030E040E05FE30E9449280E94D6285B01CE
:104170006C016091EB067091EC068091ED069091D8
:10418000EE062091EF063091F0064091F106509135
:10419000F2060E944928A60195010E9449287B0148
:1041A0008C0160E070E080E89FE3A60195010E9429
:1041B0009A249B01AC01C801B7010E947B250E9493
:1041C000D6287B018C016EA57FA5852D942D9701A6
:1041D000A8010E94742587FD08C00BC05DECE52E88
:1041E0004CECF42E0CE41EE304C0EEA4FFA4052D59
:1041F000142DC701D801F101818F928FA38FB48F45
:104200006091EB067091EC068091ED069091EE06C0
:10421000905820E030E040E050EC0E944928D10165
:104220005D962D913D914D915C9190970E9449280A
:104230002BE037ED43E25DE30E949B240E94D628E9
:10424000D62EC72EB82EA92EB701C8012D2D3C2D74
:104250004B2D5A2D0E94742587FD04C0ED2CFC2C9B
:104260000B2D1A2DC701D801F101858B968BA78BD9
:10427000B08F61897289838994892D2D3C2D4B2DB6
:104280005A2D0E94742518162CF081E0D1019296C7
:104290008C9302C0F10112A281E0D10191968C931E
:1042A000A6EDB5E0FE013D968CE001900D928150A7
:1042B000E1F7F10181899289A389B4898093E205AC
:1042C0009093E305A093E405B093E5058091C905BB
:1042D0008093C7058091C7058F5F823109F480E024
:1042E0008093C905AAECB5E0FE0131968CE00190FF
:1042F0000D928150E1F70E946A1CAF960FB6F894B8
:10430000DEBF0FBECDBFCF91DF911F910F91FF9008
:10431000EF90DF90CF90BF90AF909F908F907F9065
:104320006F905F904F903F902F9008951F931BE3E5
:1043300006C00E9451118091E605882391F4909166
:10434000C7058091C805981741F08091C805819FE5
:10435000C00111248F559E4F61F780910E0688236E
:1043600041F71F9108958091C7058093C8058091FA
:10437000C7058F5F823109F480E08093C9058CE125
:10438000EAECF5E0DF011D928A95E9F7089520EA4D
:104390003FE004C0F9013197F1F701970097D1F799
:1043A000089535E004C0232F2A95F1F7019700976F
:1043B000D1F70895AF92BF92CF92DF92EF92FF9222
:1043C0000F931F93DF93CF9300D0CDB7DEB76C016F
:1043D0005B017A01FB0180818601080F111DC80174
:1043E000BE016F5F7F4F0E949629F7016083718342
:1043F0008283938389819A818017910719F420E041
:1044000030E005C08C19F501808321E030E0C9015E
:104410000F900F90CF91DF911F910F91FF90EF9030
:10442000DF90CF90BF90AF90089584B1817F84B921
:1044300008955F926F927F928F929F92AF92BF92F8
:10444000CF92DF92EF92FF920F931F93CF93DF9360
:10445000982EA62EB42E822EC801B7012091DD061B
:10446000882011F010E001C010EE91101460A1102E
:104470001860B11010616B017C01C21AD108E1080B
:10448000F1088BB1912F907E8F71982B8091E60669
:104490008C7F98279BB9822F90E00E94D1212EE03B
:1044A000522E94E0692E88E0782E00E181E0882584
:1044B000C82FD0E083B181108525992021F081FD9E
:1044C00002C016259924AA2021F082FD02C01725DA
:1044D000AA24BB2021F083FD02C01027BB249BB17E
:1044E0008091E60681278C71892B8BB98091DD063E
:1044F00090E00E94D1219BB18091E60681278C71CA
:1045000089278BB980E090E021E5C216D104E1044F
:10451000F10410F081E090E08C239D23892B91F031
:10452000C701B60122E630E040E050E00E943A299F
:1045300024E630E040E050E00E945929C901DA0148
:104540006C017D01C6010E94D121992009F0B2CFF2
:10455000AA2009F0AFCFBB2009F0ACCFDF91CF91FB
:104560001F910F91FF90EF90DF90CF90BF90AF9091
:104570009F908F907F906F905F900895BF92CF92A1
:10458000DF92EF92FF920F931F93D82EC62EB42E78
:1045900021E0E12C3AE0F32E012D112D0E94192289
:1045A000DD2011F014E001C010E0C1101860B1105E
:1045B000106100E09BB18091E60681278C71892B08
:1045C0008BB98091DD0690E00E94D1219BB1809152
:1045D000E60681278C7189278BB980E09AE00E94DA
:1045E000D1210F5F043631F71F910F91FF90EF90AB
:1045F000DF90CF90BF900895EF92FF920F931F939B
:104600000E949621289A1092E9051092EA051092CC
:10461000EB051092EC051092ED051092EE0510924C
:10462000EF051092F0051092F1051092F20510922C
:10463000F3051092F40580E060E041E020E0E12C19
:1046400055E0F52E012D112D0E94192282E390E0F4
:104650000E94C72180E060E041E00E94BE2282E328
:1046600090E00E94C72180E061E040E020E00E94ED
:10467000192282E390E00E94C72180E061E040E0DF
:104680000E94BE2282E390E00E94C72181E060E0A8
:1046900040E020E00E94192282E390E00E94C721BE
:1046A00081E060E040E00E94BE2282E390E00E9450
:1046B000C72182E390E00E94C72128980E94FA1245
:1046C0001F910F91FF90EF900895AF92BF92CF92FC
:1046D000DF92EF92FF920F93DF93CF93CDB7DEB7C8
:1046E000A2970FB6F894DEBF0FBECDBF6B017C0161
:1046F000611571058105910521F480E30E94010F88
:1047000032C000E05E010894A11CB11CC501800FFD
:10471000911D9AA389A3C701B6012AE030E040E0C9
:1047200050E00E945929E9A1FAA160830F5FC701F7
:10473000B6012AE030E040E050E00E945929C9016A
:10474000DA016C017D01C114D104E104F104F1F638
:1047500008C0FE01E00FF11D8081805D0E94010F05
:1047600001500023B1F7A2960FB6F894DEBF0FBE3A
:10477000CDBFCF91DF910F91FF90EF90DF90CF9061
:10478000BF90AF900895AF92BF92CF92DF92EF9219
:10479000FF920F931F93CF93DF937B018C0120E057
:1047A00030E040E050E00E94742588233CF48DE224
:1047B0000E94010F17FB109517F91095C801B7015A
:1047C0002AE037ED43EA5BE30E949B247B018C01E6
:1047D0000E94E3255B016C01CC24B7FCC094DC2C67
:1047E000C601B5010E9465238EE20E94010FC60139
:1047F000B5010E9416269B01AC01C801B7010E94B9
:104800009A24C2E0D0E01EC020E030E040E251E453
:104810000E9449285B016C010E94E3257B018C0109
:10482000862F805D0E94010F6E2D70E0882777FD36
:104830008095982F0E9416269B01AC01C601B501F8
:104840000E949A2421972FEFCF3FD207E9F6DF91FC
:10485000CF911F910F91FF90EF90DF90CF90BF907D
:10486000AF900895EF92FF920F931F937B018C01FD
:1048700097FF0BC08DE20E94010F10950095F094F8
:10488000E094E11CF11C011D111DC801B7010E943B
:1048900065231F910F91FF90EF9008950F931F9341
:1048A000DF93CF93CDB7DEB728970FB6F894DEBF6E
:1048B0000FBECDBF982FFE0131969E01275F3F4F5F
:1048C000892F817081939695E217F307C9F78E01BE
:1048D000085F1F4FF8018081805D0E94010F015029
:1048E00010400C171D07B1F728960FB6F894DEBFDD
:1048F0000FBECDBFCF91DF911F910F910895CF9340
:10490000DF93EC0102C00E94010FFE012196849109
:104910008823C9F7DF91CF910895CF93DF93EC01FE
:1049200003C021960E94010F88818823D1F7DF916F
:10493000CF9108955058BB27AA270ED076C23FD2F8
:1049400030F044D220F031F49F3F11F41EF40FC236
:104950000EF4E095E7FBDCC1E92F89D280F3BA17AA
:10496000620773078407950718F071F49EF5B8C2C3
:104970000EF4E0950B2EBA2FA02D0B01B90190017A
:104980000C01CA01A0011124FF27591B99F0593FBE
:1049900050F4503E68F11A16F040A22F232F342F06
:1049A0004427585FF3CF469537952795A795F04054
:1049B0005395C9F77EF41F16BA0B620B730B840B69
:1049C000BAF09150A1F0FF0FBB1F661F771F881F21
:1049D000C2F70EC0BA0F621F731F841F48F4879579
:1049E00077956795B795F7959E3F08F0B3CF939568
:1049F000880F08F09927EE0F979587950895DFD1D6
:104A000058F080E891E009F49EEFE0D128F040E80A
:104A100051E059F45EEF09C0AAC162C2E92FE07803
:104A200026D268F3092E052AC1F32617370748074F
:104A3000590738F00E2E07F8E02569F0E025E0640C
:104A40000AC0EF6307F8009407FADB01B9019D0182
:104A5000DC01CA01AD01EF935DD0E7D10AD05F91CF
:104A6000552331F02BED3FE049E450FD49EC63CF95
:104A70000895DF93DD27B92FBF7740E85FE316166F
:104A8000170648075B0710F4D92F96D29F938F9390
:104A90007F936F93C9D3E8E6F0E06CD1C6D12F9134
:104AA0003F914F915F9101D3DD2349F09058A2EAE5
:104AB0002AED3FE049EC5FE3D0785D274DDFDF91E1
:104AC000B4C1F7D180F09F3740F491110EF409C2C0
:104AD00060E070E080E89FE3089526F01B16611DFA
:104AE000711D811D1BC135C1EFD008F481E008950F
:104AF00075D1E395ABC10CD098C168D140F05FD1BE
:104B000030F021F45F3F19F003C15111EAC12FC108
:104B1000AED198F39923C9F35523B1F3951B550BE7
:104B2000BB27AA2762177307840738F09F5F5F4F80
:104B3000220F331F441FAA1FA9F333D00E2E3AF0C1
:104B4000E0E830D091505040E695001CCAF729D0DB
:104B5000FE2F27D0660F771F881FBB1F261737072A
:104B60004807AB07B0E809F0BB0B802DBF01FF275A
:104B700093585F4F2AF09E3F510568F0C9C0B1C1FC
:104B80005F3FECF3983EDCF3869577956795B79594
:104B9000F7959F5FC9F7880F911D9695879597F9AF
:104BA0000895E1E0660F771F881FBB1F6217730728
:104BB0008407BA0720F0621B730B840BBA0BEE1F3D
:104BC00088F7E095089504D06894B1118AC10895DA
:104BD00056D188F09F5790F0B92F9927B751A0F080
:104BE000D1F0660F771F881F991F1AF0BA95C9F781
:104BF00012C0B13081F074D1B1E0089571C1672F56
:104C0000782F8827B85F39F0B93FCCF38695779530
:104C10006795B395D9F73EF4909580957095619519
:104C20007F4F8F4F9F4F0895E89409C097FB3EF444
:104C300090958095709561957F4F8F4F9F4F9923E9
:104C4000A9F0F92F96E9BB279395F6958795779567
:104C50006795B795F111F8CFFAF4BB0F11F460FF27
:104C60001BC06F5F7F4F8F4F9F4F16C0882311F07F
:104C700096E911C0772321F09EE8872F762F05C093
:104C8000662371F096E8862F70E060E02AF09A952E
:104C9000660F771F881FDAF7880F9695879597F923
:104CA000089507D180F09F3740F491110EF019C19B
:104CB00060E070E080E89FEB089526F41B16611D0C
:104CC000711D811D2BC045C0990F0008550FAA0BFF
:104CD000E0E8FEEF16161706E807F907C0F012160F
:104CE0001306E407F50798F0621B730B840B950B12
:104CF00039F40A2661F0232B242B252B21F4089567
:104D00000A2609F4A140A6958FEF811D811D089503
:104D100097F99F6780E870E060E00895882371F458
:104D2000772321F09850872B762F07C0662311F444
:104D300099270DC09051862B70E060E02AF09A957B
:104D4000660F771F881FDAF7880F9695879597F972
:104D500008959F3F31F0915020F48795779567959E
:104D6000B795880F911D9695879597F908959FEFB0
:104D700080EC0895DF93CF931F930F93FF92EF92F0
:104D8000DF927B018C01689405C0DA2EEF018DD192
:104D9000FE01E894A5912591359145915591AEF389
:104DA000EF01DADDFE019701A801DA9479F7DF90CF
:104DB000EF90FF900F911F91CF91DF910895002404
:104DC0000A941616170618060906089500240A9470
:104DD00012161306140605060895C9CF50D0E8F33D
:104DE000E894E0E0BB279F57F0F02AED3FE049EC64
:104DF00006C0EE0FBB0F661F771F881F28F0B23A60
:104E000062077307840728F0B25A620B730B840B96
:104E1000E3959A9572F7803830F49A95BB0F661F28
:104E2000771F881FD2F7904896CF092E0394000C65
:104E300011F4882352F0BB0F40F4BF2B11F460FF34
:104E400004C06F5F7F4F8F4F9F4F0895EF93E0FF38
:104E500006C0A2EA2AED3FE049EC5FEB7DDDE5DF2D
:104E60000F90039401FC9058E5E9F0E0F2C157FD82
:104E70009058440F551F59F05F3F71F04795880FC8
:104E800097FB991F61F09F3F79F08795089512165F
:104E900013061406551FF2CF4695F1DF08C016160B
:104EA00017061806991FF1CF8695710561050894BC
:104EB0000895E5DFA0F0BEE7B91788F4BB279F3857
:104EC00060F41616B11D672F782F8827985FF7CFEB
:104ED000869577956795B11D93959639C8F3089592
:104EE000E894BB2766277727CB0197F90895ECDE76
:104EF00008F48FEF089563DF19F068DF09F037CF0A
:104F000007CFB901CA0125CF9F775F77B0DF98F34C
:104F10009923B9F35523B9F3FF27951758F4E52FD3
:104F2000E91BED3070F75E3B10F0F1E41CC09034EB
:104F3000E0F40AC0E92FE51BED3028F79E3B10F0A6
:104F4000F1E411C0503488F4F9EA88232AF09A95E4
:104F5000660F771F881FDAF744232AF05A95220F2D
:104F6000331F441FDAF79F1B5F1BFF931F930F93A1
:104F7000FF92EF9279018A01BB27AB2F9B01AC0115
:104F800096D09701A801BF937B018C01AA27BA2F65
:104F9000B901CA018CD0AF919701A801EF90FF90A1
:104FA0000F911F91D9DC41DF01D14F9140FF08954E
:104FB000552747FD509509C09B01AC0160E070E0AA
:104FC00080E89FE398CDA4CEC4CE59DFE8F39923BF
:104FD000D9F3940F511DBBF39150504094F059F008
:104FE000882332F0660F771F881F91505040C1F719
:104FF0009E3F510544F7880F911D9695879597F927
:1050000008955F3FACF0983E9CF0BB27869577955E
:105010006795B79508F4B1609395C1F7BB0F58F742
:1050200011F460FFE8CF6F5F7F4F8F4F9F4FE3CF4B
:1050300058CF25DF58F19E5758F19851A0F0E9F06C
:10504000983020F5092E9927660F771F881F991F22
:105050000A94D1F712C0062E672F782F8827985F01
:1050600011F4000C07C0993FB4F3869577956795C6
:105070009395D9F7611D711D811D3EF49095809522
:10508000709561957F4F8F4F9F4F0895689429CFFA
:1050900027CF0BD0CACE93DE28F098DE18F09523E8
:1050A00009F036CE64CE11241CCFE1DEA0F3959F2B
:1050B000D1F3950F50E0551F629FF001729FBB27FF
:1050C000F00DB11D639FAA27F00DB11DAA1F649FAB
:1050D0006627B00DA11D661F829F2227B00DA11D5E
:1050E000621F739FB00DA11D621F839FA00D611DE4
:1050F000221F749F3327A00D611D231F849F600D05
:10510000211D822F762F6A2F11249F5750408AF03D
:10511000E1F088234AF0EE0FFF1FBB1F661F771FC9
:10512000881F91505040A9F79E3F510570F0F0CD77
:10513000D8CE5F3FECF3983EDCF386957795679584
:10514000B795F795E7959F5FC1F7FE2B880F911DE7
:105150009695879597F9089592DEE0F09E37D8F0FE
:105160009639B8F49E3848F4672F782F8827985FCF
:10517000F9CF86957795679593959539D0F3B62FA6
:10518000B1706B0F711D811D20F487957795679520
:105190009395C4CDDECDA5CE9F9320DE0F9007FC66
:1051A000EE5F54CE11F40EF4E2CDD3CD68DED0F331
:1051B0009923D9F3CEF39F57550B87FF43D0002493
:1051C000A0E640EA900180585695979528F4805CB7
:1051D000660F771F881F20F026173707480730F41F
:1051E000621B730B840B202931294A2BA695179437
:1051F0000794202531254A2758F7660F771F881F07
:1052000020F026173707480730F4620B730B840B26
:10521000200D311D411DA09581F7B901842F9158B2
:10522000880F9695879508959B01AC0132CF41DE9A
:1052300020F09F3708F455CE71CD8BCD45DD880B1E
:10524000990B089591505040660F771F881FD2F731
:1052500008959F938F937F936F93FF93EF939B0199
:10526000AC0117DFEF91FF9185DD2F913F914F91B9
:105270005F910FCF629FD001739FF001829FE00D7D
:10528000F11D649FE00DF11D929FF00D839FF00DC5
:10529000749FF00D659FF00D9927729FB00DE11D71
:1052A000F91F639FB00DE11DF91FBD01CF0111244E
:1052B0000895A1E21A2EAA1BBB1BFD010DC0AA1F57
:1052C000BB1FEE1FFF1FA217B307E407F50720F06F
:1052D000A21BB30BE40BF50B661F771F881F991FEA
:1052E0001A9469F760957095809590959B01AC0133
:1052F000BD01CF01089597FB092E05260ED057FD5D
:1053000004D0D7DF0AD0001C38F450954095309572
:1053100021953F4F4F4F5F4F0895F6F79095809539
:10532000709561957F4F8F4F9F4F0895A0E0B0E03B
:10533000ECE9F9E20C941F2BEC015B01611571059E
:1053400019F0FB0191838083F9908F2D90E00E94EA
:10535000F62A892BC9F7FDE2FF1621F4F990EE2415
:10536000E39405C02BE2F21609F4F990EE248E01C5
:1053700001501040C80166EA73E043E050E00E942B
:10538000FE2A892B01F58E010E5F1F4FC80169EAC5
:1053900073E045E050E00E94FE2A892B19F48E014B
:1053A000095F1F4FA114B10419F0F50111830083A7
:1053B000E0FC04C070E090E080E814C070E090E091
:1053C00080E86FEF08C1C8016EEA73E043E050E087
:1053D0000E94FE2A892B69F4A114B10429F470E01B
:1053E00090E080EC6FE7F7C02296F501D183C0838F
:1053F000F6CF8824992440E050E060E070E0EF2D83
:10540000E053EA30A0F5F2E0EF2A8E2D90E09C0107
:1054100028703070E2FE06C0232B79F50894811CB9
:10542000911C2BC0232B19F0089481089108DB01F3
:10543000CA0112E0880F991FAA1FBB1F1A95D1F746
:10544000480F591F6A1F7B1F440F551F661F771F88
:105450004E0F511D611D711D483929E9520729E977
:10546000620729E1720748F084E0E82A06C0EE3FAF
:1054700031F4E3FC39C098E0E92AF990C0CFE53374
:1054800011F0E53189F529912D3219F4E0E1EE2A88
:1054900005C02B3219F081E090E003C0299182E031
:1054A00090E0E22FE053EA3018F0C81BD90B1CC083
:1054B00020E030E0FCE020383F075CF4C901880FB1
:1054C000991F880F991F280F391F220F331F2E0F86
:1054D000311DE991E053EA3068F3E4FE03C03095F2
:1054E00021953F4F820E931ECE2CDD24E1FE07C096
:1054F000A114B10421F02197F501D183C083CB0120
:10550000BA010E9414267B018C01F3E0CF22DD2436
:1055100023E0C216D10421F417FB109517F910955A
:1055200057016801C801B70120E030E040E050E0D9
:105530000E947425882309F44AC097FE0DC025EC0B
:10554000E22E23E0F22E9094819491089394C0E28D
:10555000D0E000E010E012C09DEDE92E93E0F92EBE
:10556000F6CFF7012591359145915491C601B501CA
:105570000E9449285B016C018C1A9D0A8C169D06BD
:1055800084F7D595C7950F5F1F4F0630110529F099
:105590008CEF9FEFE80EF91EF1CFC501D6017C011B
:1055A0008D018C2D880F8D2D881F8F3F51F0C601E6
:1055B000B50120E030E040E050E00E9474258823EF
:1055C00031F482E290E09093F4068093F3067E2D0E
:1055D0009F2D802F612F272F392F482F562FB9014C
:1055E000CA01CDB7DEB7ECE00C943B2B91111EC085
:1055F000803219F089508550D0F70895FB01DC0105
:105600004150504088F08D9181341CF08B350CF462
:10561000805E659161341CF06B350CF4605E861B16
:10562000611171F3990B0895881BFCCF9927882786
:1056300008952F923F924F925F926F927F928F9236
:105640009F92AF92BF92CF92DF92EF92FF920F9311
:105650001F93CF93DF93CDB7DEB7CA1BDB0B0FB61B
:10566000F894DEBF0FBECDBF09942A8839884888D8
:105670005F846E847D848C849B84AA84B984C8846E
:10568000DF80EE80FD800C811B81AA81B981CE0F65
:10569000D11D0FB6F894DEBF0FBECDBFED0108954A
:0456A000F894FFCFAC
:1056A40053773A5B005D0D0A004D506F733A5B000F
:0C56B4002C005D2C57506F733A5B000017
:00000001FF
